:1000000029C0BCC0BBC0BAC0B9C0B8C0B7C0B6C0B8
:10001000B5C0B4C0B3C0B2C0B1C0B0C0AFC0AEC054
:10002000ADC0ACC0ABC0AAC0A9C0A8C0A7C0A6C084
:10003000A5C0A4C0A3C0A2C0A1C0A0C03E003E04F1
:10004000803E043E080001863E083E0A803E0A3E8D
:100050000B00018A11241FBECFEFCDBFDFE3DEBF4F
:10006000ECE3F0E040E017C0B591A5913591259102
:10007000059107FD0CC095918591EF01F92FE82FAF
:1000800005900D92A217B307D9F7FE0104C01D9287
:10009000A217B307E1F7E435F40731F720D067C0C2
:0400A000F894FFCF02
:1000A4001F93CF93DF93EC011881812F47D0909158
:1000B4000A3E891309C089818F3F19F410930A3EBF
:1000C40008C08F5F898305C0191303C089818150DB
:0A00D4008983DF91CF911F910895F9
:1000DE0088ED84BF109261008FEF80930004C0E220
:1000EE00D4E0888333D0F89481E08A838091280409
:1000FE0080FF0AD02FE986E891E0215080409040A1
:08010E00E1F700C00000F2CF90
:1001160088E09EE3C4DF86E09EE3C1DF84E09EE3E1
:10012600BEDF8091073EE0E0FEE380838091093EDA
:0A01360081838091053E82830895C5
:10014000882329F0813029F0823029F0089582E057
:0A015000089580E0089581E008950D
:10015A00E0E0FAE081E0828721E030E026A337A3DD
:04016A0080830895F1
:0E016E00EC0107D005D0CE0105D0CE0104D0A3
:02017C0041CF71
:02017E000895E2
:020180000895E0
:020182000895DE
:020184008DDF0D
:02018600010076
:02018800020073
:01018A000272
:00000001FF
